{
  "_format": "hh-sol-artifact-1",
  "contractName": "ICO",
  "sourceName": "contracts/ICO.sol",
  "abi": [
    {
      "inputs": [],
      "stateMutability": "nonpayable",
      "type": "constructor"
    },
    {
      "anonymous": false,
      "inputs": [
        {
          "indexed": false,
          "internalType": "address",
          "name": "_contributor",
          "type": "address"
        }
      ],
      "name": "AddressWhitelisted",
      "type": "event"
    },
    {
      "anonymous": false,
      "inputs": [
        {
          "indexed": false,
          "internalType": "uint256",
          "name": "_amount",
          "type": "uint256"
        }
      ],
      "name": "ContributionsWithdrawn",
      "type": "event"
    },
    {
      "anonymous": false,
      "inputs": [
        {
          "indexed": false,
          "internalType": "string",
          "name": "_status",
          "type": "string"
        }
      ],
      "name": "ICOStatusChange",
      "type": "event"
    },
    {
      "anonymous": false,
      "inputs": [
        {
          "indexed": false,
          "internalType": "string",
          "name": "_newPhase",
          "type": "string"
        }
      ],
      "name": "PhaseAdvanced",
      "type": "event"
    },
    {
      "anonymous": false,
      "inputs": [
        {
          "indexed": true,
          "internalType": "address",
          "name": "_contributor",
          "type": "address"
        },
        {
          "indexed": false,
          "internalType": "uint256",
          "name": "_amount",
          "type": "uint256"
        }
      ],
      "name": "TokensCollected",
      "type": "event"
    },
    {
      "anonymous": false,
      "inputs": [
        {
          "indexed": true,
          "internalType": "address",
          "name": "_contributor",
          "type": "address"
        },
        {
          "indexed": false,
          "internalType": "uint256",
          "name": "_amount",
          "type": "uint256"
        }
      ],
      "name": "UserContribution",
      "type": "event"
    },
    {
      "inputs": [],
      "name": "RATE",
      "outputs": [
        {
          "internalType": "uint256",
          "name": "",
          "type": "uint256"
        }
      ],
      "stateMutability": "view",
      "type": "function"
    },
    {
      "inputs": [],
      "name": "advancePhase",
      "outputs": [],
      "stateMutability": "nonpayable",
      "type": "function"
    },
    {
      "inputs": [],
      "name": "buy",
      "outputs": [],
      "stateMutability": "payable",
      "type": "function"
    },
    {
      "inputs": [],
      "name": "collectTokens",
      "outputs": [],
      "stateMutability": "nonpayable",
      "type": "function"
    },
    {
      "inputs": [],
      "name": "currentPhase",
      "outputs": [
        {
          "internalType": "enum ICO.Phase",
          "name": "",
          "type": "uint8"
        }
      ],
      "stateMutability": "view",
      "type": "function"
    },
    {
      "inputs": [],
      "name": "isPaused",
      "outputs": [
        {
          "internalType": "bool",
          "name": "",
          "type": "bool"
        }
      ],
      "stateMutability": "view",
      "type": "function"
    },
    {
      "inputs": [
        {
          "internalType": "enum ICO.Phase",
          "name": "",
          "type": "uint8"
        }
      ],
      "name": "maxIndividualContribution",
      "outputs": [
        {
          "internalType": "uint256",
          "name": "",
          "type": "uint256"
        }
      ],
      "stateMutability": "view",
      "type": "function"
    },
    {
      "inputs": [
        {
          "internalType": "enum ICO.Phase",
          "name": "",
          "type": "uint8"
        }
      ],
      "name": "maxPhaseTotalContribution",
      "outputs": [
        {
          "internalType": "uint256",
          "name": "",
          "type": "uint256"
        }
      ],
      "stateMutability": "view",
      "type": "function"
    },
    {
      "inputs": [
        {
          "internalType": "bool",
          "name": "_pause",
          "type": "bool"
        }
      ],
      "name": "toggleIsPaused",
      "outputs": [],
      "stateMutability": "nonpayable",
      "type": "function"
    },
    {
      "inputs": [],
      "name": "token",
      "outputs": [
        {
          "internalType": "contract IERC20",
          "name": "",
          "type": "address"
        }
      ],
      "stateMutability": "view",
      "type": "function"
    },
    {
      "inputs": [],
      "name": "totalAmountRaised",
      "outputs": [
        {
          "internalType": "uint256",
          "name": "",
          "type": "uint256"
        }
      ],
      "stateMutability": "view",
      "type": "function"
    },
    {
      "inputs": [],
      "name": "treasury",
      "outputs": [
        {
          "internalType": "address",
          "name": "",
          "type": "address"
        }
      ],
      "stateMutability": "view",
      "type": "function"
    },
    {
      "inputs": [
        {
          "internalType": "address",
          "name": "",
          "type": "address"
        }
      ],
      "name": "userContributions",
      "outputs": [
        {
          "internalType": "uint256",
          "name": "",
          "type": "uint256"
        }
      ],
      "stateMutability": "view",
      "type": "function"
    },
    {
      "inputs": [
        {
          "internalType": "address",
          "name": "",
          "type": "address"
        }
      ],
      "name": "whitelist",
      "outputs": [
        {
          "internalType": "bool",
          "name": "",
          "type": "bool"
        }
      ],
      "stateMutability": "view",
      "type": "function"
    },
    {
      "inputs": [
        {
          "internalType": "address",
          "name": "_address",
          "type": "address"
        }
      ],
      "name": "whitelistAddress",
      "outputs": [],
      "stateMutability": "nonpayable",
      "type": "function"
    },
    {
      "inputs": [],
      "name": "withdrawContributions",
      "outputs": [],
      "stateMutability": "nonpayable",
      "type": "function"
    },
    {
      "stateMutability": "payable",
      "type": "receive"
    }
  ],
  "bytecode": "0x60a06040523480156200001157600080fd5b5060016000819055503373ffffffffffffffffffffffffffffffffffffffff1660808173ffffffffffffffffffffffffffffffffffffffff1660601b81525050685150ae84a8cdf000006004600080600281111562000099577f4e487b7100000000000000000000000000000000000000000000000000000000600052602160045260246000fd5b6002811115620000d2577f4e487b7100000000000000000000000000000000000000000000000000000000600052602160045260246000fd5b815260200190815260200160002081905550683635c9adc5dea0000060046000600160028111156200012d577f4e487b7100000000000000000000000000000000000000000000000000000000600052602160045260246000fd5b600281111562000166577f4e487b7100000000000000000000000000000000000000000000000000000000600052602160045260246000fd5b81526020019081526020016000208190555069065a4da25d3016c0000060046000600280811115620001c1577f4e487b7100000000000000000000000000000000000000000000000000000000600052602160045260246000fd5b6002811115620001fa577f4e487b7100000000000000000000000000000000000000000000000000000000600052602160045260246000fd5b81526020019081526020016000208190555069032d26d12e980b6000006005600080600281111562000255577f4e487b7100000000000000000000000000000000000000000000000000000000600052602160045260246000fd5b60028111156200028e577f4e487b7100000000000000000000000000000000000000000000000000000000600052602160045260246000fd5b81526020019081526020016000208190555069065a4da25d3016c000006005600060016002811115620002ea577f4e487b7100000000000000000000000000000000000000000000000000000000600052602160045260246000fd5b600281111562000323577f4e487b7100000000000000000000000000000000000000000000000000000000600052602160045260246000fd5b81526020019081526020016000208190555069065a4da25d3016c00000600560006002808111156200037e577f4e487b7100000000000000000000000000000000000000000000000000000000600052602160045260246000fd5b6002811115620003b7577f4e487b7100000000000000000000000000000000000000000000000000000000600052602160045260246000fd5b81526020019081526020016000208190555060805160601c6142266200040b600039600081816108fc01528181610a3e01528181610b5a01528181610c9601528181611006015261116501526142266000f3fe6080604052600436106200010f5760003560e01c8063664e97041162000097578063b187bd261162000061578063b187bd261462000364578063b6e271361462000394578063be25a71814620003c2578063fc0c546a14620003dc5762000121565b8063664e970414620002ca5780638433acd114620002fa5780639b19251a1462000314578063a6f2ae3a14620003585762000121565b8063242d7dba11620000d9578063242d7dba14620001f857806341566585146200022857806359de26d0146200025657806361d027b3146200029a5762000121565b8063055ad42e14620001265780630f6ca1a81462000156578063200bf3d2146200019a5780632108af0914620001de5762000121565b3662000121576200011f6200040c565b005b600080fd5b3480156200013357600080fd5b506200013e620008b7565b6040516200014d919062001f63565b60405180910390f35b3480156200016357600080fd5b506200018260048036038101906200017c919062001b37565b620008ca565b6040516200019191906200213c565b60405180910390f35b348015620001a757600080fd5b50620001c66004803603810190620001c0919062001bbb565b620008e2565b604051620001d591906200213c565b60405180910390f35b348015620001eb57600080fd5b50620001f6620008fa565b005b3480156200020557600080fd5b506200021062000b52565b6040516200021f91906200213c565b60405180910390f35b3480156200023557600080fd5b506200025460048036038101906200024e919062001b37565b62000b58565b005b3480156200026357600080fd5b506200028260048036038101906200027c919062001bbb565b62000c7c565b6040516200029191906200213c565b60405180910390f35b348015620002a757600080fd5b50620002b262000c94565b604051620002c1919062001edf565b60405180910390f35b348015620002d757600080fd5b50620002e262000cb8565b604051620002f191906200213c565b60405180910390f35b3480156200030757600080fd5b506200031262000cbd565b005b3480156200032157600080fd5b506200034060048036038101906200033a919062001b37565b62000fd1565b6040516200034f919062001f29565b60405180910390f35b620003626200040c565b005b3480156200037157600080fd5b506200037c62000ff1565b6040516200038b919062001f29565b60405180910390f35b348015620003a157600080fd5b50620003c06004803603810190620003ba919062001b63565b62001004565b005b348015620003cf57600080fd5b50620003da62001163565b005b348015620003e957600080fd5b50620003f462001200565b60405162000403919062001f46565b60405180910390f35b600660019054906101000a900460ff16156200045f576040517f08c379a000000000000000000000000000000000000000000000000000000000815260040162000456906200202c565b60405180910390fd5b60046000600660009054906101000a900460ff166002811115620004ac577f4e487b7100000000000000000000000000000000000000000000000000000000600052602160045260246000fd5b6002811115620004e5577f4e487b7100000000000000000000000000000000000000000000000000000000600052602160045260246000fd5b81526020019081526020016000205434600360003373ffffffffffffffffffffffffffffffffffffffff1673ffffffffffffffffffffffffffffffffffffffff168152602001908152602001600020546200054191906200218b565b111562000585576040517f08c379a00000000000000000000000000000000000000000000000000000000081526004016200057c90620020f8565b60405180910390fd5b60056000600660009054906101000a900460ff166002811115620005d2577f4e487b7100000000000000000000000000000000000000000000000000000000600052602160045260246000fd5b60028111156200060b577f4e487b7100000000000000000000000000000000000000000000000000000000600052602160045260246000fd5b815260200190815260200160002054346002546200062a91906200218b565b11156200066e576040517f08c379a0000000000000000000000000000000000000000000000000000000008152600401620006659062002092565b60405180910390fd5b6200067862001226565b620006ba576040517f08c379a0000000000000000000000000000000000000000000000000000000008152600401620006b19062001fa4565b60405180910390fd5b34600360003373ffffffffffffffffffffffffffffffffffffffff1673ffffffffffffffffffffffffffffffffffffffff16815260200190815260200160002060008282546200070b91906200218b565b9250508190555034600260008282546200072691906200218b565b925050819055503373ffffffffffffffffffffffffffffffffffffffff167fbab46358d5962be245eaaef7030e12ada1141efe61752d4245e21987c27b52bf346040516200077591906200213c565b60405180910390a260056000600660009054906101000a900460ff166002811115620007ca577f4e487b7100000000000000000000000000000000000000000000000000000000600052602160045260246000fd5b600281111562000803577f4e487b7100000000000000000000000000000000000000000000000000000000600052602160045260246000fd5b815260200190815260200160002054600254148015620008a4575060028081111562000858577f4e487b7100000000000000000000000000000000000000000000000000000000600052602160045260246000fd5b600660009054906101000a900460ff166002811115620008a1577f4e487b7100000000000000000000000000000000000000000000000000000000600052602160045260246000fd5b14155b15620008b557620008b46200130e565b5b565b600660009054906101000a900460ff1681565b60036020528060005260406000206000915090505481565b60046020528060005260406000206000915090505481565b7f000000000000000000000000000000000000000000000000000000000000000073ffffffffffffffffffffffffffffffffffffffff163373ffffffffffffffffffffffffffffffffffffffff16146200098b576040517f08c379a0000000000000000000000000000000000000000000000000000000008152600401620009829062001fc6565b60405180910390fd5b60026000541415620009d4576040517f08c379a0000000000000000000000000000000000000000000000000000000008152600401620009cb90620020d6565b60405180910390fd5b600260008190555069065a4da25d3016c000006002541462000a2d576040517f08c379a000000000000000000000000000000000000000000000000000000000815260040162000a24906200211a565b60405180910390fd5b6000600254905060026000905560007f000000000000000000000000000000000000000000000000000000000000000073ffffffffffffffffffffffffffffffffffffffff168260405162000a829062001ec8565b60006040518083038185875af1925050503d806000811462000ac1576040519150601f19603f3d011682016040523d82523d6000602084013e62000ac6565b606091505b505090508062000b0d576040517f08c379a000000000000000000000000000000000000000000000000000000000815260040162000b04906200200a565b60405180910390fd5b7f33ed1fb41d6c0756201dbdddbd1c388018c393b8c5e186f9f5eef0d633c347d68260405162000b3e91906200213c565b60405180910390a150506001600081905550565b60025481565b7f000000000000000000000000000000000000000000000000000000000000000073ffffffffffffffffffffffffffffffffffffffff163373ffffffffffffffffffffffffffffffffffffffff161462000be9576040517f08c379a000000000000000000000000000000000000000000000000000000000815260040162000be09062001fc6565b60405180910390fd5b60018060008373ffffffffffffffffffffffffffffffffffffffff1673ffffffffffffffffffffffffffffffffffffffff16815260200190815260200160002060006101000a81548160ff0219169083151502179055507f4f783c179409b4127238bc9c990bc99b9a651666a0d20b51d6c42849eb88466d8160405162000c71919062001edf565b60405180910390a150565b60056020528060005260406000206000915090505481565b7f000000000000000000000000000000000000000000000000000000000000000081565b600581565b6002600054141562000d06576040517f08c379a000000000000000000000000000000000000000000000000000000000815260040162000cfd90620020d6565b60405180910390fd5b600260008190555060028081111562000d48577f4e487b7100000000000000000000000000000000000000000000000000000000600052602160045260246000fd5b600660009054906101000a900460ff16600281111562000d91577f4e487b7100000000000000000000000000000000000000000000000000000000600052602160045260246000fd5b146040518060400160405280600f81526020017f494e434f52524543545f504841534500000000000000000000000000000000008152509062000e0c576040517f08c379a000000000000000000000000000000000000000000000000000000000815260040162000e03919062001f80565b60405180910390fd5b506000600360003373ffffffffffffffffffffffffffffffffffffffff1673ffffffffffffffffffffffffffffffffffffffff168152602001908152602001600020541162000e92576040517f08c379a000000000000000000000000000000000000000000000000000000000815260040162000e89906200204e565b60405180910390fd5b60006005600360003373ffffffffffffffffffffffffffffffffffffffff1673ffffffffffffffffffffffffffffffffffffffff1681526020019081526020016000205462000ee29190620021e8565b9050600360003373ffffffffffffffffffffffffffffffffffffffff1673ffffffffffffffffffffffffffffffffffffffff1681526020019081526020016000206000905562000f763382600660029054906101000a900473ffffffffffffffffffffffffffffffffffffffff1673ffffffffffffffffffffffffffffffffffffffff16620017a99092919063ffffffff16565b3373ffffffffffffffffffffffffffffffffffffffff167f9381e53ffdc9733a6783a6f8665be3f89c231bb81a6771996ed553b4e75c0fe38260405162000fbe91906200213c565b60405180910390a2506001600081905550565b60016020528060005260406000206000915054906101000a900460ff1681565b600660019054906101000a900460ff1681565b7f000000000000000000000000000000000000000000000000000000000000000073ffffffffffffffffffffffffffffffffffffffff163373ffffffffffffffffffffffffffffffffffffffff161462001095576040517f08c379a00000000000000000000000000000000000000000000000000000000081526004016200108c9062001fc6565b60405180910390fd5b80600660016101000a81548160ff0219169083151502179055507f20b160828ca7b2282e3826213ee662d8b3a798a72303a7ead6be2eab4cc180cb8162001112576040518060400160405280600781526020017f526573756d65640000000000000000000000000000000000000000000000000081525062001149565b6040518060400160405280600681526020017f50617573656400000000000000000000000000000000000000000000000000008152505b60405162001158919062001f80565b60405180910390a150565b7f000000000000000000000000000000000000000000000000000000000000000073ffffffffffffffffffffffffffffffffffffffff163373ffffffffffffffffffffffffffffffffffffffff1614620011f4576040517f08c379a0000000000000000000000000000000000000000000000000000000008152600401620011eb9062001fc6565b60405180910390fd5b620011fe6200130e565b565b600660029054906101000a900473ffffffffffffffffffffffffffffffffffffffff1681565b600080600281111562001262577f4e487b7100000000000000000000000000000000000000000000000000000000600052602160045260246000fd5b600660009054906101000a900460ff166002811115620012ab577f4e487b7100000000000000000000000000000000000000000000000000000000600052602160045260246000fd5b14620012bb57600190506200130b565b600160003373ffffffffffffffffffffffffffffffffffffffff1673ffffffffffffffffffffffffffffffffffffffff16815260200190815260200160002060009054906101000a900460ff1690505b90565b6000600281111562001349577f4e487b7100000000000000000000000000000000000000000000000000000000600052602160045260246000fd5b600660009054906101000a900460ff16600281111562001392577f4e487b7100000000000000000000000000000000000000000000000000000000600052602160045260246000fd5b148062001420575060016002811115620013d5577f4e487b7100000000000000000000000000000000000000000000000000000000600052602160045260246000fd5b600660009054906101000a900460ff1660028111156200141e577f4e487b7100000000000000000000000000000000000000000000000000000000600052602160045260246000fd5b145b6040518060400160405280600f81526020017f494e434f52524543545f50484153450000000000000000000000000000000000815250906200149a576040517f08c379a000000000000000000000000000000000000000000000000000000000815260040162001491919062001f80565b60405180910390fd5b506001600660009054906101000a900460ff166002811115620014e6577f4e487b7100000000000000000000000000000000000000000000000000000000600052602160045260246000fd5b620014f291906200218b565b60028111156200152b577f4e487b7100000000000000000000000000000000000000000000000000000000600052602160045260246000fd5b600660006101000a81548160ff0219169083600281111562001576577f4e487b7100000000000000000000000000000000000000000000000000000000600052602160045260246000fd5b02179055507f9f60bfeccc7f7ec92aa30f4551be49d1b2c35a35ddd80de70039ac31f7663e5060016002811115620015d7577f4e487b7100000000000000000000000000000000000000000000000000000000600052602160045260246000fd5b600660009054906101000a900460ff16600281111562001620577f4e487b7100000000000000000000000000000000000000000000000000000000600052602160045260246000fd5b1462001662576040518060400160405280600481526020017f4f70656e0000000000000000000000000000000000000000000000000000000081525062001699565b6040518060400160405280600781526020017f47656e6572616c000000000000000000000000000000000000000000000000008152505b604051620016a8919062001f80565b60405180910390a1600280811115620016ea577f4e487b7100000000000000000000000000000000000000000000000000000000600052602160045260246000fd5b600660009054906101000a900460ff16600281111562001733577f4e487b7100000000000000000000000000000000000000000000000000000000600052602160045260246000fd5b1415620017a757604051620017489062001acd565b604051809103906000f08015801562001765573d6000803e3d6000fd5b50600660026101000a81548173ffffffffffffffffffffffffffffffffffffffff021916908373ffffffffffffffffffffffffffffffffffffffff1602179055505b565b6200182e8363a9059cbb60e01b8484604051602401620017cb92919062001efc565b604051602081830303815290604052907bffffffffffffffffffffffffffffffffffffffffffffffffffffffff19166020820180517bffffffffffffffffffffffffffffffffffffffffffffffffffffffff838183161783525050505062001833565b505050565b600062001897826040518060400160405280602081526020017f5361666545524332303a206c6f772d6c6576656c2063616c6c206661696c65648152508573ffffffffffffffffffffffffffffffffffffffff16620019029092919063ffffffff16565b9050600081511115620018fd5780806020019051810190620018ba919062001b8f565b620018fc576040517f08c379a0000000000000000000000000000000000000000000000000000000008152600401620018f390620020b4565b60405180910390fd5b5b505050565b60606200191384846000856200191c565b90509392505050565b60608247101562001964576040517f08c379a00000000000000000000000000000000000000000000000000000000081526004016200195b9062001fe8565b60405180910390fd5b6200196f8562001a3e565b620019b1576040517f08c379a0000000000000000000000000000000000000000000000000000000008152600401620019a89062002070565b60405180910390fd5b6000808673ffffffffffffffffffffffffffffffffffffffff168587604051620019dc919062001eaf565b60006040518083038185875af1925050503d806000811462001a1b576040519150601f19603f3d011682016040523d82523d6000602084013e62001a20565b606091505b509150915062001a3282828662001a61565b92505050949350505050565b6000808273ffffffffffffffffffffffffffffffffffffffff163b119050919050565b6060831562001a735782905062001ac6565b60008351111562001a875782518084602001fd5b816040517f08c379a000000000000000000000000000000000000000000000000000000000815260040162001abd919062001f80565b60405180910390fd5b9392505050565b611bd0806200262183390190565b60008135905062001aec81620025db565b92915050565b60008135905062001b0381620025f5565b92915050565b60008151905062001b1a81620025f5565b92915050565b60008135905062001b31816200260f565b92915050565b60006020828403121562001b4a57600080fd5b600062001b5a8482850162001adb565b91505092915050565b60006020828403121562001b7657600080fd5b600062001b868482850162001af2565b91505092915050565b60006020828403121562001ba257600080fd5b600062001bb28482850162001b09565b91505092915050565b60006020828403121562001bce57600080fd5b600062001bde8482850162001b20565b91505092915050565b62001bf28162002249565b82525050565b62001c03816200225d565b82525050565b600062001c168262002159565b62001c2281856200216f565b935062001c34818560208601620022e4565b80840191505092915050565b62001c4b81620022a8565b82525050565b62001c5c81620022d0565b82525050565b600062001c6f8262002164565b62001c7b81856200217a565b935062001c8d818560208601620022e4565b62001c988162002378565b840191505092915050565b600062001cb26009836200217a565b915062001cbf8262002389565b602082019050919050565b600062001cd9600d836200217a565b915062001ce682620023b2565b602082019050919050565b600062001d006026836200217a565b915062001d0d82620023db565b604082019050919050565b600062001d276012836200217a565b915062001d34826200242a565b602082019050919050565b600062001d4e600f836200217a565b915062001d5b8262002453565b602082019050919050565b600062001d756009836200217a565b915062001d82826200247c565b602082019050919050565b600062001d9c6000836200216f565b915062001da982620024a5565b600082019050919050565b600062001dc3601d836200217a565b915062001dd082620024a8565b602082019050919050565b600062001dea6019836200217a565b915062001df782620024d1565b602082019050919050565b600062001e11602a836200217a565b915062001e1e82620024fa565b604082019050919050565b600062001e38601f836200217a565b915062001e458262002549565b602082019050919050565b600062001e5f6018836200217a565b915062001e6c8262002572565b602082019050919050565b600062001e86600a836200217a565b915062001e93826200259b565b602082019050919050565b62001ea9816200229e565b82525050565b600062001ebd828462001c09565b915081905092915050565b600062001ed58262001d8d565b9150819050919050565b600060208201905062001ef6600083018462001be7565b92915050565b600060408201905062001f13600083018562001be7565b62001f22602083018462001e9e565b9392505050565b600060208201905062001f40600083018462001bf8565b92915050565b600060208201905062001f5d600083018462001c40565b92915050565b600060208201905062001f7a600083018462001c51565b92915050565b6000602082019050818103600083015262001f9c818462001c62565b905092915050565b6000602082019050818103600083015262001fbf8162001ca3565b9050919050565b6000602082019050818103600083015262001fe18162001cca565b9050919050565b60006020820190508181036000830152620020038162001cf1565b9050919050565b60006020820190508181036000830152620020258162001d18565b9050919050565b60006020820190508181036000830152620020478162001d3f565b9050919050565b60006020820190508181036000830152620020698162001d66565b9050919050565b600060208201905081810360008301526200208b8162001db4565b9050919050565b60006020820190508181036000830152620020ad8162001ddb565b9050919050565b60006020820190508181036000830152620020cf8162001e02565b9050919050565b60006020820190508181036000830152620020f18162001e29565b9050919050565b60006020820190508181036000830152620021138162001e50565b9050919050565b60006020820190508181036000830152620021358162001e77565b9050919050565b600060208201905062002153600083018462001e9e565b92915050565b600081519050919050565b600081519050919050565b600081905092915050565b600082825260208201905092915050565b600062002198826200229e565b9150620021a5836200229e565b9250827fffffffffffffffffffffffffffffffffffffffffffffffffffffffffffffffff03821115620021dd57620021dc6200231a565b5b828201905092915050565b6000620021f5826200229e565b915062002202836200229e565b9250817fffffffffffffffffffffffffffffffffffffffffffffffffffffffffffffffff04831182151516156200223e576200223d6200231a565b5b828202905092915050565b600062002256826200227e565b9050919050565b60008115159050919050565b60008190506200227982620025c4565b919050565b600073ffffffffffffffffffffffffffffffffffffffff82169050919050565b6000819050919050565b6000620022b582620022bc565b9050919050565b6000620022c9826200227e565b9050919050565b6000620022dd8262002269565b9050919050565b60005b8381101562002304578082015181840152602081019050620022e7565b8381111562002314576000848401525b50505050565b7f4e487b7100000000000000000000000000000000000000000000000000000000600052601160045260246000fd5b7f4e487b7100000000000000000000000000000000000000000000000000000000600052602160045260246000fd5b6000601f19601f8301169050919050565b7f57484954454c4953540000000000000000000000000000000000000000000000600082015250565b7f4f4e4c595f545245415355525900000000000000000000000000000000000000600082015250565b7f416464726573733a20696e73756666696369656e742062616c616e636520666f60008201527f722063616c6c0000000000000000000000000000000000000000000000000000602082015250565b7f5749544844524157414c5f4641494c5552450000000000000000000000000000600082015250565b7f5041555345445f43414d504149474e0000000000000000000000000000000000600082015250565b7f4e4f5f544f4b454e530000000000000000000000000000000000000000000000600082015250565b50565b7f416464726573733a2063616c6c20746f206e6f6e2d636f6e7472616374000000600082015250565b7f494e53554646494349454e545f415641494c4142494c49545900000000000000600082015250565b7f5361666545524332303a204552433230206f7065726174696f6e20646964206e60008201527f6f74207375636365656400000000000000000000000000000000000000000000602082015250565b7f5265656e7472616e637947756172643a207265656e7472616e742063616c6c00600082015250565b7f455843454544535f4d41585f434f4e545249425554494f4e0000000000000000600082015250565b7f49434f5f41435449564500000000000000000000000000000000000000000000600082015250565b60038110620025d857620025d762002349565b5b50565b620025e68162002249565b8114620025f257600080fd5b50565b62002600816200225d565b81146200260c57600080fd5b50565b600381106200261d57600080fd5b5056fe60806040523480156200001157600080fd5b506040518060400160405280600a81526020017f537061636520436f696e000000000000000000000000000000000000000000008152506040518060400160405280600381526020017f5350430000000000000000000000000000000000000000000000000000000000815250816003908051906020019062000096929190620002ba565b508060049080519060200190620000af929190620002ba565b50505033600560016101000a81548173ffffffffffffffffffffffffffffffffffffffff021916908373ffffffffffffffffffffffffffffffffffffffff16021790555062000131600560019054906101000a900473ffffffffffffffffffffffffffffffffffffffff166969e10de76676d08000006200013760201b60201c565b62000516565b600073ffffffffffffffffffffffffffffffffffffffff168273ffffffffffffffffffffffffffffffffffffffff161415620001aa576040517f08c379a0000000000000000000000000000000000000000000000000000000008152600401620001a190620003a2565b60405180910390fd5b620001be60008383620002b060201b60201c565b8060026000828254620001d29190620003f2565b92505081905550806000808473ffffffffffffffffffffffffffffffffffffffff1673ffffffffffffffffffffffffffffffffffffffff1681526020019081526020016000206000828254620002299190620003f2565b925050819055508173ffffffffffffffffffffffffffffffffffffffff16600073ffffffffffffffffffffffffffffffffffffffff167fddf252ad1be2c89b69c2b068fc378daa952ba7f163c4a11628f55a4df523b3ef83604051620002909190620003c4565b60405180910390a3620002ac60008383620002b560201b60201c565b5050565b505050565b505050565b828054620002c89062000459565b90600052602060002090601f016020900481019282620002ec576000855562000338565b82601f106200030757805160ff191683800117855562000338565b8280016001018555821562000338579182015b82811115620003375782518255916020019190600101906200031a565b5b5090506200034791906200034b565b5090565b5b80821115620003665760008160009055506001016200034c565b5090565b600062000379601f83620003e1565b91506200038682620004ed565b602082019050919050565b6200039c816200044f565b82525050565b60006020820190508181036000830152620003bd816200036a565b9050919050565b6000602082019050620003db600083018462000391565b92915050565b600082825260208201905092915050565b6000620003ff826200044f565b91506200040c836200044f565b9250827fffffffffffffffffffffffffffffffffffffffffffffffffffffffffffffffff038211156200044457620004436200048f565b5b828201905092915050565b6000819050919050565b600060028204905060018216806200047257607f821691505b60208210811415620004895762000488620004be565b5b50919050565b7f4e487b7100000000000000000000000000000000000000000000000000000000600052601160045260246000fd5b7f4e487b7100000000000000000000000000000000000000000000000000000000600052602260045260246000fd5b7f45524332303a206d696e7420746f20746865207a65726f206164647265737300600082015250565b6116aa80620005266000396000f3fe608060405234801561001057600080fd5b50600436106100ea5760003560e01c80633cfd52111161008c57806395d89b411161006657806395d89b4114610261578063a457c2d71461027f578063a9059cbb146102af578063dd62ed3e146102df576100ea565b80633cfd5211146101f757806361d027b31461021357806370a0823114610231576100ea565b806318160ddd116100c857806318160ddd1461015b57806323b872dd14610179578063313ce567146101a957806339509351146101c7576100ea565b806301b613a5146100ef57806306fdde031461010d578063095ea7b31461012b575b600080fd5b6100f761030f565b6040516101049190611061565b60405180910390f35b610115610322565b604051610122919061107c565b60405180910390f35b61014560048036038101906101409190610e54565b6103b4565b6040516101529190611061565b60405180910390f35b6101636103d7565b604051610170919061119e565b60405180910390f35b610193600480360381019061018e9190610e05565b6103e1565b6040516101a09190611061565b60405180910390f35b6101b1610410565b6040516101be91906111b9565b60405180910390f35b6101e160048036038101906101dc9190610e54565b610419565b6040516101ee9190611061565b60405180910390f35b610211600480360381019061020c9190610e90565b6104c3565b005b61021b610570565b6040516102289190611046565b60405180910390f35b61024b60048036038101906102469190610da0565b610596565b604051610258919061119e565b60405180910390f35b6102696105de565b604051610276919061107c565b60405180910390f35b61029960048036038101906102949190610e54565b610670565b6040516102a69190611061565b60405180910390f35b6102c960048036038101906102c49190610e54565b61075a565b6040516102d69190611061565b60405180910390f35b6102f960048036038101906102f49190610dc9565b61077d565b604051610306919061119e565b60405180910390f35b600560009054906101000a900460ff1681565b60606003805461033190611333565b80601f016020809104026020016040519081016040528092919081815260200182805461035d90611333565b80156103aa5780601f1061037f576101008083540402835291602001916103aa565b820191906000526020600020905b81548152906001019060200180831161038d57829003601f168201915b5050505050905090565b6000806103bf610804565b90506103cc81858561080c565b600191505092915050565b6000600254905090565b6000806103ec610804565b90506103f98582856109d7565b610404858585610a63565b60019150509392505050565b60006012905090565b600080610424610804565b90506104b8818585600160008673ffffffffffffffffffffffffffffffffffffffff1673ffffffffffffffffffffffffffffffffffffffff16815260200190815260200160002060008973ffffffffffffffffffffffffffffffffffffffff1673ffffffffffffffffffffffffffffffffffffffff168152602001908152602001600020546104b391906111f0565b61080c565b600191505092915050565b600560019054906101000a900473ffffffffffffffffffffffffffffffffffffffff1673ffffffffffffffffffffffffffffffffffffffff163373ffffffffffffffffffffffffffffffffffffffff1614610553576040517f08c379a000000000000000000000000000000000000000000000000000000000815260040161054a906110de565b60405180910390fd5b80600560006101000a81548160ff02191690831515021790555050565b600560019054906101000a900473ffffffffffffffffffffffffffffffffffffffff1681565b60008060008373ffffffffffffffffffffffffffffffffffffffff1673ffffffffffffffffffffffffffffffffffffffff168152602001908152602001600020549050919050565b6060600480546105ed90611333565b80601f016020809104026020016040519081016040528092919081815260200182805461061990611333565b80156106665780601f1061063b57610100808354040283529160200191610666565b820191906000526020600020905b81548152906001019060200180831161064957829003601f168201915b5050505050905090565b60008061067b610804565b90506000600160008373ffffffffffffffffffffffffffffffffffffffff1673ffffffffffffffffffffffffffffffffffffffff16815260200190815260200160002060008673ffffffffffffffffffffffffffffffffffffffff1673ffffffffffffffffffffffffffffffffffffffff16815260200190815260200160002054905083811015610741576040517f08c379a00000000000000000000000000000000000000000000000000000000081526004016107389061117e565b60405180910390fd5b61074e828686840361080c565b60019250505092915050565b600080610765610804565b9050610772818585610a63565b600191505092915050565b6000600160008473ffffffffffffffffffffffffffffffffffffffff1673ffffffffffffffffffffffffffffffffffffffff16815260200190815260200160002060008373ffffffffffffffffffffffffffffffffffffffff1673ffffffffffffffffffffffffffffffffffffffff16815260200190815260200160002054905092915050565b600033905090565b600073ffffffffffffffffffffffffffffffffffffffff168373ffffffffffffffffffffffffffffffffffffffff16141561087c576040517f08c379a00000000000000000000000000000000000000000000000000000000081526004016108739061115e565b60405180910390fd5b600073ffffffffffffffffffffffffffffffffffffffff168273ffffffffffffffffffffffffffffffffffffffff1614156108ec576040517f08c379a00000000000000000000000000000000000000000000000000000000081526004016108e3906110be565b60405180910390fd5b80600160008573ffffffffffffffffffffffffffffffffffffffff1673ffffffffffffffffffffffffffffffffffffffff16815260200190815260200160002060008473ffffffffffffffffffffffffffffffffffffffff1673ffffffffffffffffffffffffffffffffffffffff168152602001908152602001600020819055508173ffffffffffffffffffffffffffffffffffffffff168373ffffffffffffffffffffffffffffffffffffffff167f8c5be1e5ebec7d5bd14f71427d1e84f3dd0314c0f7b2291e5b200ac8c7c3b925836040516109ca919061119e565b60405180910390a3505050565b60006109e3848461077d565b90507fffffffffffffffffffffffffffffffffffffffffffffffffffffffffffffffff8114610a5d5781811015610a4f576040517f08c379a0000000000000000000000000000000000000000000000000000000008152600401610a46906110fe565b60405180910390fd5b610a5c848484840361080c565b5b50505050565b600560009054906101000a900460ff1615610ac6576000603282610a879190611246565b9050610ab684600560019054906101000a900473ffffffffffffffffffffffffffffffffffffffff1683610ad6565b8082610ac29190611277565b9150505b610ad1838383610ad6565b505050565b600073ffffffffffffffffffffffffffffffffffffffff168373ffffffffffffffffffffffffffffffffffffffff161415610b46576040517f08c379a0000000000000000000000000000000000000000000000000000000008152600401610b3d9061113e565b60405180910390fd5b600073ffffffffffffffffffffffffffffffffffffffff168273ffffffffffffffffffffffffffffffffffffffff161415610bb6576040517f08c379a0000000000000000000000000000000000000000000000000000000008152600401610bad9061109e565b60405180910390fd5b610bc1838383610d57565b60008060008573ffffffffffffffffffffffffffffffffffffffff1673ffffffffffffffffffffffffffffffffffffffff16815260200190815260200160002054905081811015610c47576040517f08c379a0000000000000000000000000000000000000000000000000000000008152600401610c3e9061111e565b60405180910390fd5b8181036000808673ffffffffffffffffffffffffffffffffffffffff1673ffffffffffffffffffffffffffffffffffffffff16815260200190815260200160002081905550816000808573ffffffffffffffffffffffffffffffffffffffff1673ffffffffffffffffffffffffffffffffffffffff1681526020019081526020016000206000828254610cda91906111f0565b925050819055508273ffffffffffffffffffffffffffffffffffffffff168473ffffffffffffffffffffffffffffffffffffffff167fddf252ad1be2c89b69c2b068fc378daa952ba7f163c4a11628f55a4df523b3ef84604051610d3e919061119e565b60405180910390a3610d51848484610d5c565b50505050565b505050565b505050565b600081359050610d708161162f565b92915050565b600081359050610d8581611646565b92915050565b600081359050610d9a8161165d565b92915050565b600060208284031215610db257600080fd5b6000610dc084828501610d61565b91505092915050565b60008060408385031215610ddc57600080fd5b6000610dea85828601610d61565b9250506020610dfb85828601610d61565b9150509250929050565b600080600060608486031215610e1a57600080fd5b6000610e2886828701610d61565b9350506020610e3986828701610d61565b9250506040610e4a86828701610d8b565b9150509250925092565b60008060408385031215610e6757600080fd5b6000610e7585828601610d61565b9250506020610e8685828601610d8b565b9150509250929050565b600060208284031215610ea257600080fd5b6000610eb084828501610d76565b91505092915050565b610ec2816112ab565b82525050565b610ed1816112bd565b82525050565b6000610ee2826111d4565b610eec81856111df565b9350610efc818560208601611300565b610f05816113f2565b840191505092915050565b6000610f1d6023836111df565b9150610f2882611403565b604082019050919050565b6000610f406022836111df565b9150610f4b82611452565b604082019050919050565b6000610f63600d836111df565b9150610f6e826114a1565b602082019050919050565b6000610f86601d836111df565b9150610f91826114ca565b602082019050919050565b6000610fa96026836111df565b9150610fb4826114f3565b604082019050919050565b6000610fcc6025836111df565b9150610fd782611542565b604082019050919050565b6000610fef6024836111df565b9150610ffa82611591565b604082019050919050565b60006110126025836111df565b915061101d826115e0565b604082019050919050565b611031816112e9565b82525050565b611040816112f3565b82525050565b600060208201905061105b6000830184610eb9565b92915050565b60006020820190506110766000830184610ec8565b92915050565b600060208201905081810360008301526110968184610ed7565b905092915050565b600060208201905081810360008301526110b781610f10565b9050919050565b600060208201905081810360008301526110d781610f33565b9050919050565b600060208201905081810360008301526110f781610f56565b9050919050565b6000602082019050818103600083015261111781610f79565b9050919050565b6000602082019050818103600083015261113781610f9c565b9050919050565b6000602082019050818103600083015261115781610fbf565b9050919050565b6000602082019050818103600083015261117781610fe2565b9050919050565b6000602082019050818103600083015261119781611005565b9050919050565b60006020820190506111b36000830184611028565b92915050565b60006020820190506111ce6000830184611037565b92915050565b600081519050919050565b600082825260208201905092915050565b60006111fb826112e9565b9150611206836112e9565b9250827fffffffffffffffffffffffffffffffffffffffffffffffffffffffffffffffff0382111561123b5761123a611365565b5b828201905092915050565b6000611251826112e9565b915061125c836112e9565b92508261126c5761126b611394565b5b828204905092915050565b6000611282826112e9565b915061128d836112e9565b9250828210156112a05761129f611365565b5b828203905092915050565b60006112b6826112c9565b9050919050565b60008115159050919050565b600073ffffffffffffffffffffffffffffffffffffffff82169050919050565b6000819050919050565b600060ff82169050919050565b60005b8381101561131e578082015181840152602081019050611303565b8381111561132d576000848401525b50505050565b6000600282049050600182168061134b57607f821691505b6020821081141561135f5761135e6113c3565b5b50919050565b7f4e487b7100000000000000000000000000000000000000000000000000000000600052601160045260246000fd5b7f4e487b7100000000000000000000000000000000000000000000000000000000600052601260045260246000fd5b7f4e487b7100000000000000000000000000000000000000000000000000000000600052602260045260246000fd5b6000601f19601f8301169050919050565b7f45524332303a207472616e7366657220746f20746865207a65726f206164647260008201527f6573730000000000000000000000000000000000000000000000000000000000602082015250565b7f45524332303a20617070726f766520746f20746865207a65726f20616464726560008201527f7373000000000000000000000000000000000000000000000000000000000000602082015250565b7f4f4e4c595f545245415355525900000000000000000000000000000000000000600082015250565b7f45524332303a20696e73756666696369656e7420616c6c6f77616e6365000000600082015250565b7f45524332303a207472616e7366657220616d6f756e742065786365656473206260008201527f616c616e63650000000000000000000000000000000000000000000000000000602082015250565b7f45524332303a207472616e736665722066726f6d20746865207a65726f20616460008201527f6472657373000000000000000000000000000000000000000000000000000000602082015250565b7f45524332303a20617070726f76652066726f6d20746865207a65726f2061646460008201527f7265737300000000000000000000000000000000000000000000000000000000602082015250565b7f45524332303a2064656372656173656420616c6c6f77616e63652062656c6f7760008201527f207a65726f000000000000000000000000000000000000000000000000000000602082015250565b611638816112ab565b811461164357600080fd5b50565b61164f816112bd565b811461165a57600080fd5b50565b611666816112e9565b811461167157600080fd5b5056fea2646970667358221220de5eea3b29d6ba58bfa1c542ae94e7a121ff62eb951837d143a150a62002077564736f6c63430008040033a2646970667358221220d42c504c9b8b2bde3943e7b32f6a01214f74c3429d85ef6edfc4f42f4cd4251d64736f6c63430008040033",
  "linkReferences": {},
  "deployedLinkReferences": {}
}