{
    "_format": "hh-sol-artifact-1",
    "contractName": "ICO",
    "sourceName": "contracts/ICO.sol",
    "abi": [
        {
            "inputs": [
                {
                    "internalType": "address[]",
                    "name": "_whitelist",
                    "type": "address[]"
                }
            ],
            "stateMutability": "nonpayable",
            "type": "constructor"
        },
        {
            "anonymous": false,
            "inputs": [
                {
                    "indexed": false,
                    "internalType": "address",
                    "name": "_contributor",
                    "type": "address"
                }
            ],
            "name": "AddressWhitelisted",
            "type": "event"
        },
        {
            "anonymous": false,
            "inputs": [],
            "name": "ContributionsWithdrawn",
            "type": "event"
        },
        {
            "anonymous": false,
            "inputs": [
                {
                    "indexed": false,
                    "internalType": "string",
                    "name": "_newStatus",
                    "type": "string"
                }
            ],
            "name": "ICOStatusChange",
            "type": "event"
        },
        {
            "anonymous": false,
            "inputs": [
                {
                    "indexed": false,
                    "internalType": "string",
                    "name": "_newPhase",
                    "type": "string"
                }
            ],
            "name": "PhaseAdvanced",
            "type": "event"
        },
        {
            "anonymous": false,
            "inputs": [
                {
                    "indexed": true,
                    "internalType": "address",
                    "name": "_contributor",
                    "type": "address"
                },
                {
                    "indexed": false,
                    "internalType": "uint256",
                    "name": "_amount",
                    "type": "uint256"
                }
            ],
            "name": "TokensCollected",
            "type": "event"
        },
        {
            "anonymous": false,
            "inputs": [
                {
                    "indexed": true,
                    "internalType": "address",
                    "name": "_contributor",
                    "type": "address"
                },
                {
                    "indexed": false,
                    "internalType": "uint256",
                    "name": "_amount",
                    "type": "uint256"
                }
            ],
            "name": "UserContribution",
            "type": "event"
        },
        {
            "inputs": [],
            "name": "RATE",
            "outputs": [
                {
                    "internalType": "uint256",
                    "name": "",
                    "type": "uint256"
                }
            ],
            "stateMutability": "view",
            "type": "function"
        },
        {
            "inputs": [
                {
                    "internalType": "enum ICO.Phase",
                    "name": "expectedCurrentPhase",
                    "type": "uint8"
                }
            ],
            "name": "advancePhase",
            "outputs": [],
            "stateMutability": "nonpayable",
            "type": "function"
        },
        {
            "inputs": [],
            "name": "buy",
            "outputs": [],
            "stateMutability": "payable",
            "type": "function"
        },
        {
            "inputs": [],
            "name": "collectTokens",
            "outputs": [],
            "stateMutability": "nonpayable",
            "type": "function"
        },
        {
            "inputs": [],
            "name": "currentPhase",
            "outputs": [
                {
                    "internalType": "enum ICO.Phase",
                    "name": "",
                    "type": "uint8"
                }
            ],
            "stateMutability": "view",
            "type": "function"
        },
        {
            "inputs": [
                {
                    "internalType": "enum ICO.Phase",
                    "name": "_currentPhase",
                    "type": "uint8"
                }
            ],
            "name": "getMaxIndividualContribution",
            "outputs": [
                {
                    "internalType": "uint256",
                    "name": "maxContribution",
                    "type": "uint256"
                }
            ],
            "stateMutability": "pure",
            "type": "function"
        },
        {
            "inputs": [
                {
                    "internalType": "enum ICO.Phase",
                    "name": "_currentPhase",
                    "type": "uint8"
                }
            ],
            "name": "getMaxPhaseContribution",
            "outputs": [
                {
                    "internalType": "uint256",
                    "name": "maxContribution",
                    "type": "uint256"
                }
            ],
            "stateMutability": "pure",
            "type": "function"
        },
        {
            "inputs": [],
            "name": "isPaused",
            "outputs": [
                {
                    "internalType": "bool",
                    "name": "",
                    "type": "bool"
                }
            ],
            "stateMutability": "view",
            "type": "function"
        },
        {
            "inputs": [
                {
                    "internalType": "bool",
                    "name": "_pause",
                    "type": "bool"
                }
            ],
            "name": "toggleIsPaused",
            "outputs": [],
            "stateMutability": "nonpayable",
            "type": "function"
        },
        {
            "inputs": [],
            "name": "token",
            "outputs": [
                {
                    "internalType": "contract IERC20",
                    "name": "",
                    "type": "address"
                }
            ],
            "stateMutability": "view",
            "type": "function"
        },
        {
            "inputs": [],
            "name": "totalAmountRaised",
            "outputs": [
                {
                    "internalType": "uint256",
                    "name": "",
                    "type": "uint256"
                }
            ],
            "stateMutability": "view",
            "type": "function"
        },
        {
            "inputs": [],
            "name": "transferredSpc",
            "outputs": [
                {
                    "internalType": "bool",
                    "name": "",
                    "type": "bool"
                }
            ],
            "stateMutability": "view",
            "type": "function"
        },
        {
            "inputs": [],
            "name": "treasury",
            "outputs": [
                {
                    "internalType": "address",
                    "name": "",
                    "type": "address"
                }
            ],
            "stateMutability": "view",
            "type": "function"
        },
        {
            "inputs": [
                {
                    "internalType": "address",
                    "name": "",
                    "type": "address"
                }
            ],
            "name": "userContributions",
            "outputs": [
                {
                    "internalType": "uint256",
                    "name": "",
                    "type": "uint256"
                }
            ],
            "stateMutability": "view",
            "type": "function"
        },
        {
            "inputs": [
                {
                    "internalType": "address",
                    "name": "",
                    "type": "address"
                }
            ],
            "name": "whitelist",
            "outputs": [
                {
                    "internalType": "bool",
                    "name": "",
                    "type": "bool"
                }
            ],
            "stateMutability": "view",
            "type": "function"
        },
        {
            "inputs": [
                {
                    "internalType": "address",
                    "name": "_address",
                    "type": "address"
                },
                {
                    "internalType": "bool",
                    "name": "toWhitelist",
                    "type": "bool"
                }
            ],
            "name": "whitelistAddress",
            "outputs": [],
            "stateMutability": "nonpayable",
            "type": "function"
        },
        {
            "inputs": [
                {
                    "internalType": "address",
                    "name": "routerAddress",
                    "type": "address"
                }
            ],
            "name": "withdrawContributions",
            "outputs": [],
            "stateMutability": "nonpayable",
            "type": "function"
        }
    ],
    "bytecode": "0x60a06040523480156200001157600080fd5b50604051620047c1380380620047c18339818101604052810190620000379190620001e8565b3373ffffffffffffffffffffffffffffffffffffffff1660808173ffffffffffffffffffffffffffffffffffffffff1660601b8152505060008151905060005b8181101562000126576001600080858481518110620000bf577f4e487b7100000000000000000000000000000000000000000000000000000000600052603260045260246000fd5b602002602001015173ffffffffffffffffffffffffffffffffffffffff1673ffffffffffffffffffffffffffffffffffffffff16815260200190815260200160002060006101000a81548160ff021916908315150217905550808060010191505062000077565b50505062000349565b600062000146620001408462000256565b6200022d565b905080838252602082019050828560208602820111156200016657600080fd5b60005b858110156200019a57816200017f8882620001a4565b84526020840193506020830192505060018101905062000169565b5050509392505050565b600081519050620001b5816200032f565b92915050565b600082601f830112620001cd57600080fd5b8151620001df8482602086016200012f565b91505092915050565b600060208284031215620001fb57600080fd5b600082015167ffffffffffffffff8111156200021657600080fd5b6200022484828501620001bb565b91505092915050565b6000620002396200024c565b9050620002478282620002b9565b919050565b6000604051905090565b600067ffffffffffffffff821115620002745762000273620002ef565b5b602082029050602081019050919050565b6000620002928262000299565b9050919050565b600073ffffffffffffffffffffffffffffffffffffffff82169050919050565b620002c4826200031e565b810181811067ffffffffffffffff82111715620002e657620002e5620002ef565b5b80604052505050565b7f4e487b7100000000000000000000000000000000000000000000000000000000600052604160045260246000fd5b6000601f19601f8301169050919050565b6200033a8162000285565b81146200034657600080fd5b50565b60805160601c61443d620003846000396000818161048c0152818161089001528181610feb0152818161108a01526111e9015261443d6000f3fe608060405260043610620001165760003560e01c80639b19251a11620000a3578063b3260839116200006d578063b3260839146200036f578063b6e27136146200039d578063b9a45aac14620003cb578063c55b1a7914620003f9578063fc0c546a14620004295762000116565b80639b19251a14620002ab578063a6f2ae3a14620002ef578063a77fb3dc14620002fb578063b187bd26146200033f5762000116565b80633bb444ad11620000e55780633bb444ad14620001ed57806361d027b31462000231578063664e970414620002615780638433acd114620002915762000116565b8063055ad42e146200011b5780630f6ca1a8146200014b578063242d7dba146200018f5780632cbdd31314620001bf575b600080fd5b3480156200012857600080fd5b506200013362000459565b60405162000142919062002197565b60405180910390f35b3480156200015857600080fd5b5062000177600480360381019062000171919062001d51565b6200046c565b6040516200018691906200236b565b60405180910390f35b3480156200019c57600080fd5b50620001a762000484565b604051620001b691906200236b565b60405180910390f35b348015620001cc57600080fd5b50620001eb6004803603810190620001e5919062001d51565b6200048a565b005b348015620001fa57600080fd5b5062000219600480360381019062000213919062001e16565b6200075d565b6040516200022891906200236b565b60405180910390f35b3480156200023e57600080fd5b50620002496200088e565b604051620002589190620020e6565b60405180910390f35b3480156200026e57600080fd5b5062000279620008b2565b6040516200028891906200236b565b60405180910390f35b3480156200029e57600080fd5b50620002a9620008b7565b005b348015620002b857600080fd5b50620002d76004803603810190620002d1919062001d51565b62000bc9565b604051620002e691906200215d565b60405180910390f35b620002f962000be9565b005b3480156200030857600080fd5b5062000327600480360381019062000321919062001e16565b62000f33565b6040516200033691906200236b565b60405180910390f35b3480156200034c57600080fd5b506200035762000fd6565b6040516200036691906200215d565b60405180910390f35b3480156200037c57600080fd5b506200039b600480360381019062000395919062001e16565b62000fe9565b005b348015620003aa57600080fd5b50620003c96004803603810190620003c3919062001dbe565b62001088565b005b348015620003d857600080fd5b50620003f76004803603810190620003f1919062001d7d565b620011e7565b005b3480156200040657600080fd5b50620004116200130b565b6040516200042091906200215d565b60405180910390f35b3480156200043657600080fd5b50620004416200131e565b6040516200045091906200217a565b60405180910390f35b600360009054906101000a900460ff1681565b60026020528060005260406000206000915090505481565b60015481565b7f000000000000000000000000000000000000000000000000000000000000000073ffffffffffffffffffffffffffffffffffffffff163373ffffffffffffffffffffffffffffffffffffffff16146200051b576040517f08c379a0000000000000000000000000000000000000000000000000000000008152600401620005129062002239565b60405180910390fd5b6002600454141562000564576040517f08c379a00000000000000000000000000000000000000000000000000000000081526004016200055b9062002217565b60405180910390fd5b600260048190555069065a4da25d3016c0000060015414620005bd576040517f08c379a0000000000000000000000000000000000000000000000000000000008152600401620005b49062002349565b60405180910390fd5b6001600090556001600360026101000a81548160ff021916908315150217905550600081905060038054906101000a900473ffffffffffffffffffffffffffffffffffffffff1673ffffffffffffffffffffffffffffffffffffffff1663095ea7b383691fc3842bd1f071c000006040518363ffffffff1660e01b81526004016200064a92919062002103565b602060405180830381600087803b1580156200066557600080fd5b505af11580156200067a573d6000803e3d6000fd5b505050506040513d601f19601f82011682018060405250810190620006a0919062001dea565b508073ffffffffffffffffffffffffffffffffffffffff166351c6590a69065a4da25d3016c00000691fc3842bd1f071c000006040518363ffffffff1660e01b8152600401620006f19190620021b4565b6000604051808303818588803b1580156200070b57600080fd5b505af115801562000720573d6000803e3d6000fd5b50505050507ffcbaf35d9d433cadb47fff8c36f104d6328ec94f998bfb949b4f65529b3a1b7660405160405180910390a150600160048190555050565b600080600281111562000799577f4e487b7100000000000000000000000000000000000000000000000000000000600052602160045260246000fd5b826002811115620007d3577f4e487b7100000000000000000000000000000000000000000000000000000000600052602160045260246000fd5b1415620007ec57685150ae84a8cdf00000905062000889565b6001600281111562000827577f4e487b7100000000000000000000000000000000000000000000000000000000600052602160045260246000fd5b82600281111562000861577f4e487b7100000000000000000000000000000000000000000000000000000000600052602160045260246000fd5b14156200087a57683635c9adc5dea00000905062000888565b69065a4da25d3016c0000090505b5b919050565b7f000000000000000000000000000000000000000000000000000000000000000081565b600581565b6002600454141562000900576040517f08c379a0000000000000000000000000000000000000000000000000000000008152600401620008f79062002217565b60405180910390fd5b600260048190555060028081111562000942577f4e487b7100000000000000000000000000000000000000000000000000000000600052602160045260246000fd5b600360009054906101000a900460ff1660028111156200098b577f4e487b7100000000000000000000000000000000000000000000000000000000600052602160045260246000fd5b146040518060400160405280600f81526020017f494e434f52524543545f504841534500000000000000000000000000000000008152509062000a06576040517f08c379a0000000000000000000000000000000000000000000000000000000008152600401620009fd9190620021d1565b60405180910390fd5b506000600260003373ffffffffffffffffffffffffffffffffffffffff1673ffffffffffffffffffffffffffffffffffffffff168152602001908152602001600020541162000a8c576040517f08c379a000000000000000000000000000000000000000000000000000000000815260040162000a83906200229f565b60405180910390fd5b60006005600260003373ffffffffffffffffffffffffffffffffffffffff1673ffffffffffffffffffffffffffffffffffffffff1681526020019081526020016000205462000adc919062002417565b9050600260003373ffffffffffffffffffffffffffffffffffffffff1673ffffffffffffffffffffffffffffffffffffffff1681526020019081526020016000206000905562000b6e338260038054906101000a900473ffffffffffffffffffffffffffffffffffffffff1673ffffffffffffffffffffffffffffffffffffffff16620013429092919063ffffffff16565b3373ffffffffffffffffffffffffffffffffffffffff167f9381e53ffdc9733a6783a6f8665be3f89c231bb81a6771996ed553b4e75c0fe38260405162000bb691906200236b565b60405180910390a2506001600481905550565b60006020528060005260406000206000915054906101000a900460ff1681565b600360029054906101000a900460ff161562000c3c576040517f08c379a000000000000000000000000000000000000000000000000000000000815260040162000c33906200227d565b60405180910390fd5b62000c56600360009054906101000a900460ff166200075d565b34600260003373ffffffffffffffffffffffffffffffffffffffff1673ffffffffffffffffffffffffffffffffffffffff1681526020019081526020016000205462000ca39190620023ba565b111562000ce7576040517f08c379a000000000000000000000000000000000000000000000000000000000815260040162000cde9062002327565b60405180910390fd5b62000d01600360009054906101000a900460ff1662000f33565b3460015462000d119190620023ba565b111562000d55576040517f08c379a000000000000000000000000000000000000000000000000000000000815260040162000d4c90620022e3565b60405180910390fd5b62000d5f620013cc565b62000da1576040517f08c379a000000000000000000000000000000000000000000000000000000000815260040162000d9890620021f5565b60405180910390fd5b34600260003373ffffffffffffffffffffffffffffffffffffffff1673ffffffffffffffffffffffffffffffffffffffff168152602001908152602001600020600082825462000df29190620023ba565b92505081905550346001600082825462000e0d9190620023ba565b925050819055503373ffffffffffffffffffffffffffffffffffffffff167fbab46358d5962be245eaaef7030e12ada1141efe61752d4245e21987c27b52bf3460405162000e5c91906200236b565b60405180910390a262000e7e600360009054906101000a900460ff1662000f33565b60015414801562000f10575060028081111562000ec4577f4e487b7100000000000000000000000000000000000000000000000000000000600052602160045260246000fd5b600360009054906101000a900460ff16600281111562000f0d577f4e487b7100000000000000000000000000000000000000000000000000000000600052602160045260246000fd5b14155b1562000f315762000f30600360009054906101000a900460ff16620014b3565b5b565b600080600281111562000f6f577f4e487b7100000000000000000000000000000000000000000000000000000000600052602160045260246000fd5b82600281111562000fa9577f4e487b7100000000000000000000000000000000000000000000000000000000600052602160045260246000fd5b141562000fc35769032d26d12e980b600000905062000fd1565b69065a4da25d3016c0000090505b919050565b600360029054906101000a900460ff1681565b7f000000000000000000000000000000000000000000000000000000000000000073ffffffffffffffffffffffffffffffffffffffff163373ffffffffffffffffffffffffffffffffffffffff16146200107a576040517f08c379a0000000000000000000000000000000000000000000000000000000008152600401620010719062002239565b60405180910390fd5b6200108581620014b3565b50565b7f000000000000000000000000000000000000000000000000000000000000000073ffffffffffffffffffffffffffffffffffffffff163373ffffffffffffffffffffffffffffffffffffffff161462001119576040517f08c379a0000000000000000000000000000000000000000000000000000000008152600401620011109062002239565b60405180910390fd5b80600360026101000a81548160ff0219169083151502179055507f20b160828ca7b2282e3826213ee662d8b3a798a72303a7ead6be2eab4cc180cb8162001196576040518060400160405280600781526020017f526573756d656400000000000000000000000000000000000000000000000000815250620011cd565b6040518060400160405280600681526020017f50617573656400000000000000000000000000000000000000000000000000008152505b604051620011dc9190620021d1565b60405180910390a150565b7f000000000000000000000000000000000000000000000000000000000000000073ffffffffffffffffffffffffffffffffffffffff163373ffffffffffffffffffffffffffffffffffffffff161462001278576040517f08c379a00000000000000000000000000000000000000000000000000000000081526004016200126f9062002239565b60405180910390fd5b806000808473ffffffffffffffffffffffffffffffffffffffff1673ffffffffffffffffffffffffffffffffffffffff16815260200190815260200160002060006101000a81548160ff0219169083151502179055507f4f783c179409b4127238bc9c990bc99b9a651666a0d20b51d6c42849eb88466d82604051620012ff9190620020e6565b60405180910390a15050565b600360019054906101000a900460ff1681565b60038054906101000a900473ffffffffffffffffffffffffffffffffffffffff1681565b620013c78363a9059cbb60e01b84846040516024016200136492919062002130565b604051602081830303815290604052907bffffffffffffffffffffffffffffffffffffffffffffffffffffffff19166020820180517bffffffffffffffffffffffffffffffffffffffffffffffffffffffff838183161783525050505062001a4d565b505050565b600080600281111562001408577f4e487b7100000000000000000000000000000000000000000000000000000000600052602160045260246000fd5b600360009054906101000a900460ff16600281111562001451577f4e487b7100000000000000000000000000000000000000000000000000000000600052602160045260246000fd5b14620014615760019050620014b0565b6000803373ffffffffffffffffffffffffffffffffffffffff1673ffffffffffffffffffffffffffffffffffffffff16815260200190815260200160002060009054906101000a900460ff1690505b90565b600360009054906101000a900460ff166002811115620014fc577f4e487b7100000000000000000000000000000000000000000000000000000000600052602160045260246000fd5b81600281111562001536577f4e487b7100000000000000000000000000000000000000000000000000000000600052602160045260246000fd5b146040518060400160405280600f81526020017f494e434f52524543545f5048415345000000000000000000000000000000000081525090620015b1576040517f08c379a0000000000000000000000000000000000000000000000000000000008152600401620015a89190620021d1565b60405180910390fd5b5060006002811115620015ed577f4e487b7100000000000000000000000000000000000000000000000000000000600052602160045260246000fd5b600360009054906101000a900460ff16600281111562001636577f4e487b7100000000000000000000000000000000000000000000000000000000600052602160045260246000fd5b1480620016c457506001600281111562001679577f4e487b7100000000000000000000000000000000000000000000000000000000600052602160045260246000fd5b600360009054906101000a900460ff166002811115620016c2577f4e487b7100000000000000000000000000000000000000000000000000000000600052602160045260246000fd5b145b6040518060400160405280600f81526020017f494e434f52524543545f50484153450000000000000000000000000000000000815250906200173e576040517f08c379a0000000000000000000000000000000000000000000000000000000008152600401620017359190620021d1565b60405180910390fd5b506001600360009054906101000a900460ff1660028111156200178a577f4e487b7100000000000000000000000000000000000000000000000000000000600052602160045260246000fd5b620017969190620023ba565b6002811115620017cf577f4e487b7100000000000000000000000000000000000000000000000000000000600052602160045260246000fd5b600360006101000a81548160ff021916908360028111156200181a577f4e487b7100000000000000000000000000000000000000000000000000000000600052602160045260246000fd5b02179055507f9f60bfeccc7f7ec92aa30f4551be49d1b2c35a35ddd80de70039ac31f7663e50600160028111156200187b577f4e487b7100000000000000000000000000000000000000000000000000000000600052602160045260246000fd5b600360009054906101000a900460ff166002811115620018c4577f4e487b7100000000000000000000000000000000000000000000000000000000600052602160045260246000fd5b1462001906576040518060400160405280600481526020017f4f70656e000000000000000000000000000000000000000000000000000000008152506200193d565b6040518060400160405280600781526020017f47656e6572616c000000000000000000000000000000000000000000000000008152505b6040516200194c9190620021d1565b60405180910390a16002808111156200198e577f4e487b7100000000000000000000000000000000000000000000000000000000600052602160045260246000fd5b600360009054906101000a900460ff166002811115620019d7577f4e487b7100000000000000000000000000000000000000000000000000000000600052602160045260246000fd5b141562001a4a57604051620019ec9062001ce7565b604051809103906000f08015801562001a09573d6000803e3d6000fd5b506003806101000a81548173ffffffffffffffffffffffffffffffffffffffff021916908373ffffffffffffffffffffffffffffffffffffffff1602179055505b50565b600062001ab1826040518060400160405280602081526020017f5361666545524332303a206c6f772d6c6576656c2063616c6c206661696c65648152508573ffffffffffffffffffffffffffffffffffffffff1662001b1c9092919063ffffffff16565b905060008151111562001b17578080602001905181019062001ad4919062001dea565b62001b16576040517f08c379a000000000000000000000000000000000000000000000000000000000815260040162001b0d9062002305565b60405180910390fd5b5b505050565b606062001b2d848460008562001b36565b90509392505050565b60608247101562001b7e576040517f08c379a000000000000000000000000000000000000000000000000000000000815260040162001b75906200225b565b60405180910390fd5b62001b898562001c58565b62001bcb576040517f08c379a000000000000000000000000000000000000000000000000000000000815260040162001bc290620022c1565b60405180910390fd5b6000808673ffffffffffffffffffffffffffffffffffffffff16858760405162001bf69190620020cd565b60006040518083038185875af1925050503d806000811462001c35576040519150601f19603f3d011682016040523d82523d6000602084013e62001c3a565b606091505b509150915062001c4c82828662001c7b565b92505050949350505050565b6000808273ffffffffffffffffffffffffffffffffffffffff163b119050919050565b6060831562001c8d5782905062001ce0565b60008351111562001ca15782518084602001fd5b816040517f08c379a000000000000000000000000000000000000000000000000000000000815260040162001cd79190620021d1565b60405180910390fd5b9392505050565b611bd0806200283883390190565b60008135905062001d0681620027f2565b92915050565b60008135905062001d1d816200280c565b92915050565b60008151905062001d34816200280c565b92915050565b60008135905062001d4b8162002826565b92915050565b60006020828403121562001d6457600080fd5b600062001d748482850162001cf5565b91505092915050565b6000806040838503121562001d9157600080fd5b600062001da18582860162001cf5565b925050602062001db48582860162001d0c565b9150509250929050565b60006020828403121562001dd157600080fd5b600062001de18482850162001d0c565b91505092915050565b60006020828403121562001dfd57600080fd5b600062001e0d8482850162001d23565b91505092915050565b60006020828403121562001e2957600080fd5b600062001e398482850162001d3a565b91505092915050565b62001e4d8162002478565b82525050565b62001e5e816200248c565b82525050565b600062001e718262002388565b62001e7d81856200239e565b935062001e8f81856020860162002527565b80840191505092915050565b62001ea681620024d7565b82525050565b62001eb781620024ff565b82525050565b62001ec88162002513565b82525050565b600062001edb8262002393565b62001ee78185620023a9565b935062001ef981856020860162002527565b62001f0481620025bb565b840191505092915050565b600062001f1e600983620023a9565b915062001f2b82620025cc565b602082019050919050565b600062001f45600e83620023a9565b915062001f5282620025f5565b602082019050919050565b600062001f6c600d83620023a9565b915062001f79826200261e565b602082019050919050565b600062001f93602683620023a9565b915062001fa08262002647565b604082019050919050565b600062001fba600f83620023a9565b915062001fc78262002696565b602082019050919050565b600062001fe1600983620023a9565b915062001fee82620026bf565b602082019050919050565b600062002008601d83620023a9565b91506200201582620026e8565b602082019050919050565b60006200202f601983620023a9565b91506200203c8262002711565b602082019050919050565b600062002056602a83620023a9565b915062002063826200273a565b604082019050919050565b60006200207d601883620023a9565b91506200208a8262002789565b602082019050919050565b6000620020a4600a83620023a9565b9150620020b182620027b2565b602082019050919050565b620020c781620024cd565b82525050565b6000620020db828462001e64565b915081905092915050565b6000602082019050620020fd600083018462001e42565b92915050565b60006040820190506200211a600083018562001e42565b62002129602083018462001ebd565b9392505050565b600060408201905062002147600083018562001e42565b620021566020830184620020bc565b9392505050565b600060208201905062002174600083018462001e53565b92915050565b600060208201905062002191600083018462001e9b565b92915050565b6000602082019050620021ae600083018462001eac565b92915050565b6000602082019050620021cb600083018462001ebd565b92915050565b60006020820190508181036000830152620021ed818462001ece565b905092915050565b60006020820190508181036000830152620022108162001f0f565b9050919050565b60006020820190508181036000830152620022328162001f36565b9050919050565b60006020820190508181036000830152620022548162001f5d565b9050919050565b60006020820190508181036000830152620022768162001f84565b9050919050565b60006020820190508181036000830152620022988162001fab565b9050919050565b60006020820190508181036000830152620022ba8162001fd2565b9050919050565b60006020820190508181036000830152620022dc8162001ff9565b9050919050565b60006020820190508181036000830152620022fe8162002020565b9050919050565b60006020820190508181036000830152620023208162002047565b9050919050565b6000602082019050818103600083015262002342816200206e565b9050919050565b60006020820190508181036000830152620023648162002095565b9050919050565b6000602082019050620023826000830184620020bc565b92915050565b600081519050919050565b600081519050919050565b600081905092915050565b600082825260208201905092915050565b6000620023c782620024cd565b9150620023d483620024cd565b9250827fffffffffffffffffffffffffffffffffffffffffffffffffffffffffffffffff038211156200240c576200240b6200255d565b5b828201905092915050565b60006200242482620024cd565b91506200243183620024cd565b9250817fffffffffffffffffffffffffffffffffffffffffffffffffffffffffffffffff04831182151516156200246d576200246c6200255d565b5b828202905092915050565b60006200248582620024ad565b9050919050565b60008115159050919050565b6000819050620024a882620027db565b919050565b600073ffffffffffffffffffffffffffffffffffffffff82169050919050565b6000819050919050565b6000620024e482620024eb565b9050919050565b6000620024f882620024ad565b9050919050565b60006200250c8262002498565b9050919050565b60006200252082620024cd565b9050919050565b60005b83811015620025475780820151818401526020810190506200252a565b8381111562002557576000848401525b50505050565b7f4e487b7100000000000000000000000000000000000000000000000000000000600052601160045260246000fd5b7f4e487b7100000000000000000000000000000000000000000000000000000000600052602160045260246000fd5b6000601f19601f8301169050919050565b7f57484954454c4953540000000000000000000000000000000000000000000000600082015250565b7f5245454e5452414e545f43414c4c000000000000000000000000000000000000600082015250565b7f4f4e4c595f545245415355525900000000000000000000000000000000000000600082015250565b7f416464726573733a20696e73756666696369656e742062616c616e636520666f60008201527f722063616c6c0000000000000000000000000000000000000000000000000000602082015250565b7f5041555345445f43414d504149474e0000000000000000000000000000000000600082015250565b7f4e4f5f544f4b454e530000000000000000000000000000000000000000000000600082015250565b7f416464726573733a2063616c6c20746f206e6f6e2d636f6e7472616374000000600082015250565b7f494e53554646494349454e545f415641494c4142494c49545900000000000000600082015250565b7f5361666545524332303a204552433230206f7065726174696f6e20646964206e60008201527f6f74207375636365656400000000000000000000000000000000000000000000602082015250565b7f455843454544535f4d41585f434f4e545249425554494f4e0000000000000000600082015250565b7f49434f5f41435449564500000000000000000000000000000000000000000000600082015250565b60038110620027ef57620027ee6200258c565b5b50565b620027fd8162002478565b81146200280957600080fd5b50565b62002817816200248c565b81146200282357600080fd5b50565b600381106200283457600080fd5b5056fe60806040523480156200001157600080fd5b506040518060400160405280600a81526020017f537061636520436f696e000000000000000000000000000000000000000000008152506040518060400160405280600381526020017f5350430000000000000000000000000000000000000000000000000000000000815250816003908051906020019062000096929190620002ba565b508060049080519060200190620000af929190620002ba565b50505033600560016101000a81548173ffffffffffffffffffffffffffffffffffffffff021916908373ffffffffffffffffffffffffffffffffffffffff16021790555062000131600560019054906101000a900473ffffffffffffffffffffffffffffffffffffffff166969e10de76676d08000006200013760201b60201c565b62000516565b600073ffffffffffffffffffffffffffffffffffffffff168273ffffffffffffffffffffffffffffffffffffffff161415620001aa576040517f08c379a0000000000000000000000000000000000000000000000000000000008152600401620001a190620003a2565b60405180910390fd5b620001be60008383620002b060201b60201c565b8060026000828254620001d29190620003f2565b92505081905550806000808473ffffffffffffffffffffffffffffffffffffffff1673ffffffffffffffffffffffffffffffffffffffff1681526020019081526020016000206000828254620002299190620003f2565b925050819055508173ffffffffffffffffffffffffffffffffffffffff16600073ffffffffffffffffffffffffffffffffffffffff167fddf252ad1be2c89b69c2b068fc378daa952ba7f163c4a11628f55a4df523b3ef83604051620002909190620003c4565b60405180910390a3620002ac60008383620002b560201b60201c565b5050565b505050565b505050565b828054620002c89062000459565b90600052602060002090601f016020900481019282620002ec576000855562000338565b82601f106200030757805160ff191683800117855562000338565b8280016001018555821562000338579182015b82811115620003375782518255916020019190600101906200031a565b5b5090506200034791906200034b565b5090565b5b80821115620003665760008160009055506001016200034c565b5090565b600062000379601f83620003e1565b91506200038682620004ed565b602082019050919050565b6200039c816200044f565b82525050565b60006020820190508181036000830152620003bd816200036a565b9050919050565b6000602082019050620003db600083018462000391565b92915050565b600082825260208201905092915050565b6000620003ff826200044f565b91506200040c836200044f565b9250827fffffffffffffffffffffffffffffffffffffffffffffffffffffffffffffffff038211156200044457620004436200048f565b5b828201905092915050565b6000819050919050565b600060028204905060018216806200047257607f821691505b60208210811415620004895762000488620004be565b5b50919050565b7f4e487b7100000000000000000000000000000000000000000000000000000000600052601160045260246000fd5b7f4e487b7100000000000000000000000000000000000000000000000000000000600052602260045260246000fd5b7f45524332303a206d696e7420746f20746865207a65726f206164647265737300600082015250565b6116aa80620005266000396000f3fe608060405234801561001057600080fd5b50600436106100ea5760003560e01c80633cfd52111161008c57806395d89b411161006657806395d89b4114610261578063a457c2d71461027f578063a9059cbb146102af578063dd62ed3e146102df576100ea565b80633cfd5211146101f757806361d027b31461021357806370a0823114610231576100ea565b806318160ddd116100c857806318160ddd1461015b57806323b872dd14610179578063313ce567146101a957806339509351146101c7576100ea565b806301b613a5146100ef57806306fdde031461010d578063095ea7b31461012b575b600080fd5b6100f761030f565b6040516101049190611061565b60405180910390f35b610115610322565b604051610122919061107c565b60405180910390f35b61014560048036038101906101409190610e54565b6103b4565b6040516101529190611061565b60405180910390f35b6101636103d7565b604051610170919061119e565b60405180910390f35b610193600480360381019061018e9190610e05565b6103e1565b6040516101a09190611061565b60405180910390f35b6101b1610410565b6040516101be91906111b9565b60405180910390f35b6101e160048036038101906101dc9190610e54565b610419565b6040516101ee9190611061565b60405180910390f35b610211600480360381019061020c9190610e90565b6104c3565b005b61021b610570565b6040516102289190611046565b60405180910390f35b61024b60048036038101906102469190610da0565b610596565b604051610258919061119e565b60405180910390f35b6102696105de565b604051610276919061107c565b60405180910390f35b61029960048036038101906102949190610e54565b610670565b6040516102a69190611061565b60405180910390f35b6102c960048036038101906102c49190610e54565b61075a565b6040516102d69190611061565b60405180910390f35b6102f960048036038101906102f49190610dc9565b61077d565b604051610306919061119e565b60405180910390f35b600560009054906101000a900460ff1681565b60606003805461033190611333565b80601f016020809104026020016040519081016040528092919081815260200182805461035d90611333565b80156103aa5780601f1061037f576101008083540402835291602001916103aa565b820191906000526020600020905b81548152906001019060200180831161038d57829003601f168201915b5050505050905090565b6000806103bf610804565b90506103cc81858561080c565b600191505092915050565b6000600254905090565b6000806103ec610804565b90506103f98582856109d7565b610404858585610a63565b60019150509392505050565b60006012905090565b600080610424610804565b90506104b8818585600160008673ffffffffffffffffffffffffffffffffffffffff1673ffffffffffffffffffffffffffffffffffffffff16815260200190815260200160002060008973ffffffffffffffffffffffffffffffffffffffff1673ffffffffffffffffffffffffffffffffffffffff168152602001908152602001600020546104b391906111f0565b61080c565b600191505092915050565b600560019054906101000a900473ffffffffffffffffffffffffffffffffffffffff1673ffffffffffffffffffffffffffffffffffffffff163373ffffffffffffffffffffffffffffffffffffffff1614610553576040517f08c379a000000000000000000000000000000000000000000000000000000000815260040161054a906110de565b60405180910390fd5b80600560006101000a81548160ff02191690831515021790555050565b600560019054906101000a900473ffffffffffffffffffffffffffffffffffffffff1681565b60008060008373ffffffffffffffffffffffffffffffffffffffff1673ffffffffffffffffffffffffffffffffffffffff168152602001908152602001600020549050919050565b6060600480546105ed90611333565b80601f016020809104026020016040519081016040528092919081815260200182805461061990611333565b80156106665780601f1061063b57610100808354040283529160200191610666565b820191906000526020600020905b81548152906001019060200180831161064957829003601f168201915b5050505050905090565b60008061067b610804565b90506000600160008373ffffffffffffffffffffffffffffffffffffffff1673ffffffffffffffffffffffffffffffffffffffff16815260200190815260200160002060008673ffffffffffffffffffffffffffffffffffffffff1673ffffffffffffffffffffffffffffffffffffffff16815260200190815260200160002054905083811015610741576040517f08c379a00000000000000000000000000000000000000000000000000000000081526004016107389061117e565b60405180910390fd5b61074e828686840361080c565b60019250505092915050565b600080610765610804565b9050610772818585610a63565b600191505092915050565b6000600160008473ffffffffffffffffffffffffffffffffffffffff1673ffffffffffffffffffffffffffffffffffffffff16815260200190815260200160002060008373ffffffffffffffffffffffffffffffffffffffff1673ffffffffffffffffffffffffffffffffffffffff16815260200190815260200160002054905092915050565b600033905090565b600073ffffffffffffffffffffffffffffffffffffffff168373ffffffffffffffffffffffffffffffffffffffff16141561087c576040517f08c379a00000000000000000000000000000000000000000000000000000000081526004016108739061115e565b60405180910390fd5b600073ffffffffffffffffffffffffffffffffffffffff168273ffffffffffffffffffffffffffffffffffffffff1614156108ec576040517f08c379a00000000000000000000000000000000000000000000000000000000081526004016108e3906110be565b60405180910390fd5b80600160008573ffffffffffffffffffffffffffffffffffffffff1673ffffffffffffffffffffffffffffffffffffffff16815260200190815260200160002060008473ffffffffffffffffffffffffffffffffffffffff1673ffffffffffffffffffffffffffffffffffffffff168152602001908152602001600020819055508173ffffffffffffffffffffffffffffffffffffffff168373ffffffffffffffffffffffffffffffffffffffff167f8c5be1e5ebec7d5bd14f71427d1e84f3dd0314c0f7b2291e5b200ac8c7c3b925836040516109ca919061119e565b60405180910390a3505050565b60006109e3848461077d565b90507fffffffffffffffffffffffffffffffffffffffffffffffffffffffffffffffff8114610a5d5781811015610a4f576040517f08c379a0000000000000000000000000000000000000000000000000000000008152600401610a46906110fe565b60405180910390fd5b610a5c848484840361080c565b5b50505050565b600560009054906101000a900460ff1615610ac6576000603282610a879190611246565b9050610ab684600560019054906101000a900473ffffffffffffffffffffffffffffffffffffffff1683610ad6565b8082610ac29190611277565b9150505b610ad1838383610ad6565b505050565b600073ffffffffffffffffffffffffffffffffffffffff168373ffffffffffffffffffffffffffffffffffffffff161415610b46576040517f08c379a0000000000000000000000000000000000000000000000000000000008152600401610b3d9061113e565b60405180910390fd5b600073ffffffffffffffffffffffffffffffffffffffff168273ffffffffffffffffffffffffffffffffffffffff161415610bb6576040517f08c379a0000000000000000000000000000000000000000000000000000000008152600401610bad9061109e565b60405180910390fd5b610bc1838383610d57565b60008060008573ffffffffffffffffffffffffffffffffffffffff1673ffffffffffffffffffffffffffffffffffffffff16815260200190815260200160002054905081811015610c47576040517f08c379a0000000000000000000000000000000000000000000000000000000008152600401610c3e9061111e565b60405180910390fd5b8181036000808673ffffffffffffffffffffffffffffffffffffffff1673ffffffffffffffffffffffffffffffffffffffff16815260200190815260200160002081905550816000808573ffffffffffffffffffffffffffffffffffffffff1673ffffffffffffffffffffffffffffffffffffffff1681526020019081526020016000206000828254610cda91906111f0565b925050819055508273ffffffffffffffffffffffffffffffffffffffff168473ffffffffffffffffffffffffffffffffffffffff167fddf252ad1be2c89b69c2b068fc378daa952ba7f163c4a11628f55a4df523b3ef84604051610d3e919061119e565b60405180910390a3610d51848484610d5c565b50505050565b505050565b505050565b600081359050610d708161162f565b92915050565b600081359050610d8581611646565b92915050565b600081359050610d9a8161165d565b92915050565b600060208284031215610db257600080fd5b6000610dc084828501610d61565b91505092915050565b60008060408385031215610ddc57600080fd5b6000610dea85828601610d61565b9250506020610dfb85828601610d61565b9150509250929050565b600080600060608486031215610e1a57600080fd5b6000610e2886828701610d61565b9350506020610e3986828701610d61565b9250506040610e4a86828701610d8b565b9150509250925092565b60008060408385031215610e6757600080fd5b6000610e7585828601610d61565b9250506020610e8685828601610d8b565b9150509250929050565b600060208284031215610ea257600080fd5b6000610eb084828501610d76565b91505092915050565b610ec2816112ab565b82525050565b610ed1816112bd565b82525050565b6000610ee2826111d4565b610eec81856111df565b9350610efc818560208601611300565b610f05816113f2565b840191505092915050565b6000610f1d6023836111df565b9150610f2882611403565b604082019050919050565b6000610f406022836111df565b9150610f4b82611452565b604082019050919050565b6000610f63600d836111df565b9150610f6e826114a1565b602082019050919050565b6000610f86601d836111df565b9150610f91826114ca565b602082019050919050565b6000610fa96026836111df565b9150610fb4826114f3565b604082019050919050565b6000610fcc6025836111df565b9150610fd782611542565b604082019050919050565b6000610fef6024836111df565b9150610ffa82611591565b604082019050919050565b60006110126025836111df565b915061101d826115e0565b604082019050919050565b611031816112e9565b82525050565b611040816112f3565b82525050565b600060208201905061105b6000830184610eb9565b92915050565b60006020820190506110766000830184610ec8565b92915050565b600060208201905081810360008301526110968184610ed7565b905092915050565b600060208201905081810360008301526110b781610f10565b9050919050565b600060208201905081810360008301526110d781610f33565b9050919050565b600060208201905081810360008301526110f781610f56565b9050919050565b6000602082019050818103600083015261111781610f79565b9050919050565b6000602082019050818103600083015261113781610f9c565b9050919050565b6000602082019050818103600083015261115781610fbf565b9050919050565b6000602082019050818103600083015261117781610fe2565b9050919050565b6000602082019050818103600083015261119781611005565b9050919050565b60006020820190506111b36000830184611028565b92915050565b60006020820190506111ce6000830184611037565b92915050565b600081519050919050565b600082825260208201905092915050565b60006111fb826112e9565b9150611206836112e9565b9250827fffffffffffffffffffffffffffffffffffffffffffffffffffffffffffffffff0382111561123b5761123a611365565b5b828201905092915050565b6000611251826112e9565b915061125c836112e9565b92508261126c5761126b611394565b5b828204905092915050565b6000611282826112e9565b915061128d836112e9565b9250828210156112a05761129f611365565b5b828203905092915050565b60006112b6826112c9565b9050919050565b60008115159050919050565b600073ffffffffffffffffffffffffffffffffffffffff82169050919050565b6000819050919050565b600060ff82169050919050565b60005b8381101561131e578082015181840152602081019050611303565b8381111561132d576000848401525b50505050565b6000600282049050600182168061134b57607f821691505b6020821081141561135f5761135e6113c3565b5b50919050565b7f4e487b7100000000000000000000000000000000000000000000000000000000600052601160045260246000fd5b7f4e487b7100000000000000000000000000000000000000000000000000000000600052601260045260246000fd5b7f4e487b7100000000000000000000000000000000000000000000000000000000600052602260045260246000fd5b6000601f19601f8301169050919050565b7f45524332303a207472616e7366657220746f20746865207a65726f206164647260008201527f6573730000000000000000000000000000000000000000000000000000000000602082015250565b7f45524332303a20617070726f766520746f20746865207a65726f20616464726560008201527f7373000000000000000000000000000000000000000000000000000000000000602082015250565b7f4f4e4c595f545245415355525900000000000000000000000000000000000000600082015250565b7f45524332303a20696e73756666696369656e7420616c6c6f77616e6365000000600082015250565b7f45524332303a207472616e7366657220616d6f756e742065786365656473206260008201527f616c616e63650000000000000000000000000000000000000000000000000000602082015250565b7f45524332303a207472616e736665722066726f6d20746865207a65726f20616460008201527f6472657373000000000000000000000000000000000000000000000000000000602082015250565b7f45524332303a20617070726f76652066726f6d20746865207a65726f2061646460008201527f7265737300000000000000000000000000000000000000000000000000000000602082015250565b7f45524332303a2064656372656173656420616c6c6f77616e63652062656c6f7760008201527f207a65726f000000000000000000000000000000000000000000000000000000602082015250565b611638816112ab565b811461164357600080fd5b50565b61164f816112bd565b811461165a57600080fd5b50565b611666816112e9565b811461167157600080fd5b5056fea26469706673582212200c71e2a918149ed84f6d985d12ac96660ffb6bb757fdfbb95dad181e0b4c684864736f6c63430008040033a2646970667358221220394a292472b03f53081f2c108d448cd7c23c2d3e587f5b2d2b868d21d2c6c20664736f6c63430008040033",
    "linkReferences": {},
    "deployedLinkReferences": {}
}